:0300000002089D56
:0C089D00787FE4F6D8FD75813E0208E487
:100B4100010C00010A00010900010800010B000865
:090B51000D00000000000000008E
:0309290012023F78
:10092C00AB07AA067C277D10120426EF2430F50BAA
:10093C007C277D10AF03AE02120426AA04AB057C03
:10094C00037DE8AF03AE02120426EF2430F5087CD9
:10095C00037DE8AF03AE02120426AA04AB057C00AB
:10096C007D64AF03AE02120426EF2430F5097C003F
:10097C007D64AF03AE02120426AA04AB057C007D95
:10098C000AAF03AE02120426EF2430F50A7C007D78
:0E099C000AAF03AE02120426ED2430F50C2241
:1004A900E4F521F522F523F524F525F526F52AF5B8
:1004B90029F528F527F52EF52DF52CF52BF532F52F
:1004C90031F530F52F7FC8FE120AEC120B26120BFC
:1004D9000A7F2C7E01120AEC120A1DE50EF521E5B0
:1004E9000DF522E510F523E50FF524E512F525E5CF
:1004F90011F526D3E52294FFE521648094FF400895
:100509000522E52270020521D3E52494FFE5236441
:100519008094FF40080524E52470020523D3E526CD
:1005290094FFE525648094FF40080526E5267002BE
:1005390005257B51E4FDFF120ACD7B4DE4FD7F01CA
:10054900120ACD7B43E4FD7F02120ACD7B35E4FD1F
:100559007F03120ACD7B38E4FD7F04120ACD7B3874
:10056900E4FD7F05120ACD7B33E4FD7F06120ACD37
:10057900AC23AD24EC120206C004C005C006C007B6
:10058900AC21AD22EC1202068F3A8E398D388C37A8
:10059900D007D006D005D0041209AA7BE07A2E79BB
:1005A9006578421200FBE4FBFA7934784312000AB9
:1005B9008F2A8E298D288C27E4FBFA79207841121D
:1005C90000FB8F2A8E298D288C271209297B58E454
:1005D900FD7F08120ACD7B59E4FD7F09120ACD7B04
:1005E9003AE4FD7F0A120ACDAB08E4FD7F0B120A3B
:1005F900CDAB09E4FD7F0C120ACDAB0AE4FD7F0DFA
:10060900120ACD7B2EE4FD7F0E120ACDAB0CE4FD60
:100619007F0F120ACDAC25AD26EC120206C004C02C
:1006290005C006C007AC21AD22EC1202068F3A8E36
:10063900398D388C37D007D006D005D0041209AAD5
:100649007BE07A2E796578421200FBE4FBFA793473
:10065900784312000A8F2E8E2D8D2C8C2BE4FBFAF9
:10066900792078411200FB8F2E8E2D8D2C8C2B1228
:1006790009297B587D01E4FF120ACD7B5A7D017F50
:1006890001120ACD7B3A7D017F02120ACDAB087DAA
:10069900017F03120ACDAB097D017F04120ACDAB9C
:1006A9000A7D017F05120ACD7B2E7D017F06120A84
:1006B900CDAB0C7D017F07120ACDAC25AD26EC121E
:1006C9000206C004C005C006C007AC23AD24EC1265
:1006D90002068F3A8E398D388C37D007D006D0056F
:1006E900D0041209AA7BE07A2E796578421200FBC0
:1006F900E4FBFA7934784312000A8F328E318D3057
:100709008C2FE4FBFA792078411200FB8F328E316D
:100719008D308C2F12023F12092C7B597D017F08E5
:10072900120ACD7B5A7D017F09120ACD7B3A7D01E0
:100739007F0A120ACDAB087D017F0B120ACDAB09E6
:100749007D017F0C120ACDAB0A7D017F0D120ACD06
:100759007B2E7D017F0E120ACDAB0C7D017F0F121E
:0C0769000ACD7F647E00120AEC0204E15D
:100AAC00000000000000000000000000000000003A
:100ABC00000000000000000000000000000000002A
:010ACC002207
:100AEC00D3EF9400EE940040147D797C00ED1D70E2
:0D0AFC00011CED4C70F7EF1F70E61E80E34B
:010B090022C9
:100B890075A0FFC287D28600D2850000E5A020E7C4
:040B9900FBC28522F4
:100B7400ED6003120B89C287C286008FA000D28564
:050B84000000C2852203
:100B9D00120B89D287C286008FA000D2850000C2B9
:020BAD0085229F
:100B26007D017F38120B747F08120B747F01120B44
:0B0B3600747F06120B747F0C020B741E
:100ACD00AE07AC0353050153060FED60034306401B
:0F0ADD00430680AF06E4FD120B74AF04020B9DBD
:0F0BAF00D291D290120AACC291120AACC290221B
:0C0BD900C291D290120AACD291020AAC78
:0E0BBE00A2009291D290120AACC290020AAC30
:0D0BCC00D290120AACA291C290120AAC2283
:020A89008F35A7
:100A8B00E4F536E53525E0F5359291D290120AACB6
:100A9B00C290120AAC0536E536C3940840E5020B4A
:010AAB00CC7E
:100A6000E4F535D291F534E53525E0F535D290122F
:100A70000AACA291E4334235C290120AAC0534E5C7
:080A800034C3940840E1AF35D6
:010A8800224B
:100B5B008F338D34120BAF7F1A120A89AF33120AFF
:090B6B0089AF34120A89020BD98A
:100A1D00120BAF7F1A120A89E4FF120A89120BAF6B
:100A2D007F1B120A89E4F533120A60740D2533F821
:100A3D00A607E533B40504D2008002C200120BBE36
:100A4D000533E533C3940640DF120BD97F057E00D5
:030A5D00020AEC9E
:100B0A007D0D7F09120B5B7D017F0B120B5B7D4014
:0C0B1A007F20120B5B7D017F21020B5B32
:100003000202ABE86480F8E933E83360110460F07E
:10001300ED33EC337009E8FCE9FDEAFEEBFF220463
:1000230060DED3EB9FEA9EE99DE8C2E78CF0C2F75E
:1000330095F0400CE8CCF8E9CDF9EACEFAEBCFFB2A
:1000430012027685D0F05804700320D5B3E804700B
:10005300075002B2D50202B592D5EC0460F7E4CCA6
:10006300C0E0C398F8603B94186008400DD0E0FBF3
:1000730002028DE4FBFAC9FC8028E830E406E4C9F7
:10008300FBE4CAFCE830E305E4C9CACBFCE8540747
:100093006010F8C3E913F9EA13FAEB13FBEC13FC52
:1000A300D8F130F52FC3E49CFCEF9BFFEE9AFEEDF5
:1000B30099FDD0E0FBEF4E4D4C701222DB030202A0
:1000C300B2EC2CFCEF33FFEE33FEED33FDED30E706
:1000D300EB02028DEF2BFFEE3AFEED39FDD0E0FB94
:1000E30050130BBB00030202B5ED13FDEE13FEEF3D
:0800F30013FFEC13FC02028D67
:1000FB00EC4D6011E8497017ED33EC3304600DE4FF
:10010B00FCFFFEFD22E933E8330470F80202AB1268
:10011B00027658046009E4CC248150062850090269
:10012B0002B52840030202B2C0E0EB4A7044B9802A
:10013B0006D0E0FB0202A1EF4E701CBD8008EBFF66
:10014B00EAFEE9FD80EBE98DF0A4FEE5F00201E4A7
:10015B00E9CDF9EAFEEBFFEF89F0A4FCE5F0CE89DF
:10016B00F0A42EFFE435F0CD89F0A42DFEE435F09C
:10017B008067EF4E7005BD80D780C3EF8BF0A4ACCA
:10018B00F0EE8BF0A42CFCE435F0F8EF8AF0A42C05
:10019B00E5F038FCE433CB8DF0A42CFCE5F03BF818
:1001AB00EE8AF0A42CFCE5F038F8E433CF89F0A408
:1001BB002CFCE5F038CF3400CE89F0A42FFFE5F00E
:1001CB003EFEE433C98DF0A42EFEE5F039CD8AF066
:1001DB00A42FFFE5F03EFEE43DFD33D0E0FB5007DE
:1001EB000BBB000F0202B5EC2CFCEF33FFEE33FE22
:0601FB00ED33FD02028D50
:1002010075F020800E75F010800575F0087D007E78
:10021100007F003392D530D50312047BEC334010BC
:10022100EF33FFEE33FEED33FDEC33FCD5F0ED2281
:0E023100E5F0247EA2D513CC92E7CDCEFF22BD
:10023F00EDD2E7CD33EC3392D524814006E4FFFEB7
:10024F00FDFC22FCE4CFCECDCC24E0501174FF8016
:10025F00EDC3CC13CCCD13CDCE13CECF13CF0470B3
:07026F00F030D5DE02047B34
:1009AA008F368E358D348C33AB3AAA39A938A837AD
:1009BA001202C31207958F368E358D348C33E53784
:1009CA0030E747ECC0E0EDC0E0EEC0E0EFC0E0E4A5
:1009DA00FFFEFDFCAB36AA35A934A8331203607BAF
:1009EA00DB600250087A0F7949784080067A0F79DD
:1009FA004978C0D0E0FFD0E0FED0E0FDD0E0FC12A4
:100A0A00000A8F368E358D348C33AF36AE35AD3421
:030A1A00AC3322D8
:10027600E9D2E7C933E833F892D5EDD2E7CD33ECCE
:0702860033FC5002B2D52247
:10028D00EC30E7100FBF000C0EBE00080DBD0004D2
:10029D000BEB6014A2D5EB13FCED92E7FD2274FF7E
:1002AD00FCFDFEFF22E480F8A2D574FF13FC7D80D7
:0302BD00E480EFEB
:1002C0000202B5EC5D046005E8590470030202AB5C
:1002D000120276580460F6EC4860F2EC7004FDFE01
:1002E000FF22C860DB2481C85009C3986002500611
:1002F0000202B29850CAF582E9294B4A7005AB82D6
:100300000202A175F0007C1A7880C3EF9BEE9AED93
:1003100099400DC3EF9BFFEE9AFEED99FDE842F088
:10032000DC23ACF0D0E0FFD0E0FED0E0FDAB8220DB
:10033000E7101BEB60BAEC2CFCEF33FFEE33FEED65
:1003400033FD02028DE803F830E705C0F075F000D8
:10035000EF2FFFEE33FEED33FD40B830E7C280AA49
:1003600074F8CC6480CCC86480C8F58204604FC344
:10037000EB9FF5F0EA9E42F0E99D42F0E89C45F0E3
:10038000603C501DE5825FFFE582D313CB5BCBF46D
:100390002B5582FB50280ABA002409B90020088096
:1003A0001DE5825BFBE582D313CF5FCFF4C3132F30
:1003B0005582FF50090EBE00050DBD00010CC3EBB8
:1003C0009FF5F0EA9E42F0E99D42F0E89C45F0601E
:0903D00007CC4820E701B3EC2240
:10077500BE1249253E4CCCCDBEAAAAAB3F80000097
:100785003E7ADBB03EED63383F24BC7D3F490FDB4D
:10079500ED33ECC2E7CC339200B4FF13ED547F6028
:1007A500030202AB7FDB7E0F7DC97C3F020890C24E
:1007B50001C3947F401E7007EDD2E794904015EF7A
:1007C500FBEEFAEDF9ECF87F007E007D807C3F12B0
:1007D50002C3D201ED33EC33248430E705E4C0E0F5
:1007E500806D04FAEDD2E754F0C333DAFD540734D3
:1007F500002323C0E0CCC0E0F8EDC0E0F9EEC0E096
:10080500FAEFC0E0FBE412020BEC24FEFC8C3B8DFE
:100815003C8E3D8F3E1200FB7B007A007980783F4D
:1008250012000AECC53BB2E7FCEDC53CFDEEC53D4B
:10083500FEEFC53EFFD0E0FBD0E0FAD0E0F9D0E016
:10084500F812000AA83BA93CAA3DAB3E1202C38C94
:100855003B8D3C8E3D8F3E90077574031203D9A8DE
:100865003BA93CAA3DAB3E1200FBD0E0600F2481C2
:10087500F582E43407F58312049912000A30010B5E
:100885007BDB7A0F79C978BF12000AED33EC336050
:0808950006ECA20092E7FC2230
:1003D900C0E0EFFBEEFAEDF9ECF81200FBD0E0F526
:1003E900F0EFFBEEFAEDF9ECF8120489A3A3A3A34D
:1003F900E8C0E0E9C0E0EAC0E0EBC0E0C0F012000C
:10040900FB120499A3A3A3A312000AD0F0D0E0FB26
:0D041900D0E0FAD0E0F9D0E0F8D5F0D42220
:1008A9000204A9E493A3F8E493A34003F68001F2B8
:1008B90008DFF48029E493A3F85407240CC8C33350
:1008C900C4540F4420C8834004F456800146F6DF1F
:1008D900E4800B0102040810204080900B41E47E63
:1008E900019360BCA3FF543F30E509541FFEE49314
:1008F900A360010ECF54C025E060A840B8E493A3DB
:10090900FAE493A3F8E493A3C8C582C8CAC583CA05
:10091900F0A3C8C582C8CAC583CADFE9DEE780BEBD
:010B5A00009A
:10042600BC000BBE0029EF8DF084FFADF022E4CCBA
:10043600F875F008EF2FFFEE33FEEC33FCEE9DEC83
:10044600984005FCEE9DFE0FD5F0E9E4CEFD22EDC9
:10045600F8F5F0EE8420D21CFEADF075F008EF2F13
:10046600FFED33FD4007985006D5F0F222C398FD04
:050476000FD5F0EA22A1
:0E047B00C3E49FFFE49EFEE49DFDE49CFC2292
:10048900E493FC740193FD740293FE740393FF22B9
:10049900E493F8740193F9740293FA740393FB22B9
:00000001FF
