:03000000020AFFF2
:0C0AFF00787FE4F6D8FD7581400204A960
:03089A0012023F08
:10089D00AB07AA067C277D10120426EF2430F50B3A
:1008AD007C277D10AF03AE02120426AA04AB057C93
:1008BD00037DE8AF03AE02120426EF2430F5087C69
:1008CD00037DE8AF03AE02120426AA04AB057C003B
:1008DD007D64AF03AE02120426EF2430F5097C00CF
:1008ED007D64AF03AE02120426AA04AB057C007D25
:1008FD000AAF03AE02120426EF2430F50A7C007D08
:0E090D000AAF03AE02120426ED2430F50C22D0
:100A0400D3EF9400EE940040147D797C00ED1D70CA
:0D0A1400011CED4C70F7EF1F70E61E80E333
:010A210022B2
:100AA00075A0FFC287D28600D2850000E5A020E7AE
:040AB000FBC28522DE
:100A8B00ED6003120AA0C287C286008FA000D28538
:050A9B000000C28522ED
:100AB400120AA0D287C286008FA000D2850000C28D
:020AC400852289
:100A40007D017F38120A8B7F08120A8B7F01120A00
:0B0A50008B7F06120A8B7F0C020A8BC2
:1009E500AE07AC0353050153060FED600343064004
:0F09F500430680AF06E4FD120A8BAF04020AB47A
:1009C4000000000000000000000000000000000023
:1009D4000000000000000000000000000000000013
:0109E40022F0
:0E0AC6007F307E02EF1FAC0670011E4C70F6F2
:010AD40022FF
:0F0AD500D291D2901209C4C2911209C4C29022C8
:0C0B0B00C291D2901209C4D2910209C418
:0E0AE400A2009291D2901209C4C2900209C4DD
:0D0AF200D2901209C4A291C2901209C42230
:100A5B00E4FEEF25E0FF9291D2901209C4C29012EE
:090A6B0009C40EBE08EC020AF2F7
:100A2200E4FFD291FEEF25E0FFD2901209C4A29119
:0D0A3200E4334207C2901209C40EBE08E86A
:010A3F002294
:100A7400AC07120AD57F3C120A5BAF04120A5BAFC3
:070A840005120A5B020B0BD7
:10098E00120AD57F3C120A5B7F03120A5B120AD54C
:10099E007F3D120A5BE4FD120A22740D2DF8A607A4
:1009AE00BD0504D2008002C200120AE40DBD06E7A6
:0609BE00120B0B020AC639
:070B1700E4FD7F02020A74F5
:1004A900E4F52CF52BF52AF529F530F52FF52EF580
:1004B9002DF534F533F532F5317FF47E01120A0456
:1004C900120A40120B1712098EE50DF523E50EF5F8
:1004D90024E50FF527E510F528E511F525E512F5D1
:1004E90026D3E52494FFE523648094FF400805247E
:1004F900E52470020523D3E52694FFE5256480945D
:10050900FF40080526E52670020525D3E52894FF56
:10051900E527648094FF40080528E528700205272F
:100529007B48E4FDFF1209E57B4DE4FD7F011209DB
:10053900E57B43E4FD7F021209E57B35E4FD7F039A
:100549001209E57B38E4FD7F041209E5E4FD7F0526
:100559001209E57B33E4FD7F061209E5AC25AD26DA
:10056900EC120206C004C005C006C007AC23AD24C6
:10057900EC1202068F3C8E3B8D3A8C39D007D0069F
:10058900D005D00412091B7BE07A2E7965784212D6
:1005990000FBE4FBFA7934784312000A8F2C8E2B86
:1005A9008D2A8C29E4FBFA792078411200FB8F2CE3
:1005B9008E2B8D2A8C2912089A7B58E4FD7F08120C
:1005C90009E50BE4FD7F091209E57B3AE4FD7F0AA1
:1005D9001209E5AB08E4FD7F0B1209E5AB09E4FD5F
:1005E9007F0C1209E5AB0AE4FD7F0D1209E57B2EAC
:1005F900E4FD7F0E1209E5AB0CE4FD7F0F1209E55E
:10060900AC27AD28EC120206C004C005C006C0071D
:10061900AC23AD24EC1202068F3C8E3B8D3A8C390B
:10062900D007D006D005D00412091B7BE07A2E79B9
:100639006578421200FBE4FBFA7934784312000A28
:100649008F308E2F8D2E8C2DE4FBFA792078411274
:1006590000FB8F308E2F8D2E8C2D12089A7B587DA2
:1006690001E4FF1209E57B5A7D017F011209E57B4F
:100679003A7D017F021209E5AB087D017F0312096A
:10068900E5AB097D017F041209E5AB0A7D017F0510
:100699001209E57B2E7D017F061209E5AB0C7D0170
:1006A9007F071209E5AC27AD28EC120206C004C089
:1006B90005C006C007AC25AD26EC1202068F3C8E9C
:1006C9003B8D3A8C39D007D006D005D00412091BCE
:1006D9007BE07A2E796578421200FBE4FBFA7934E3
:1006E900784312000A8F348E338D328C31E4FBFA51
:1006F900792078411200FB8F348E338D328C311280
:10070900023F12089D7B597D017F081209E50B7D87
:10071900017F091209E57B3A7D017F0A1209E5ABE0
:10072900087D017F0B1209E5AB097D017F0C1209D8
:10073900E5AB0A7D017F0D1209E57B2E7D017F0E58
:100749001209E5AB0C7D017F0F1209E5E4F521F5EE
:1007590022C3E5229410E521942740030204CF0522
:0907690022E52270EC052180E874
:100003000202ABE86480F8E933E83360110460F07E
:10001300ED33EC337009E8FCE9FDEAFEEBFF220463
:1000230060DED3EB9FEA9EE99DE8C2E78CF0C2F75E
:1000330095F0400CE8CCF8E9CDF9EACEFAEBCFFB2A
:1000430012027685D0F05804700320D5B3E804700B
:10005300075002B2D50202B592D5EC0460F7E4CCA6
:10006300C0E0C398F8603B94186008400DD0E0FBF3
:1000730002028DE4FBFAC9FC8028E830E406E4C9F7
:10008300FBE4CAFCE830E305E4C9CACBFCE8540747
:100093006010F8C3E913F9EA13FAEB13FBEC13FC52
:1000A300D8F130F52FC3E49CFCEF9BFFEE9AFEEDF5
:1000B30099FDD0E0FBEF4E4D4C701222DB030202A0
:1000C300B2EC2CFCEF33FFEE33FEED33FDED30E706
:1000D300EB02028DEF2BFFEE3AFEED39FDD0E0FB94
:1000E30050130BBB00030202B5ED13FDEE13FEEF3D
:0800F30013FFEC13FC02028D67
:1000FB00EC4D6011E8497017ED33EC3304600DE4FF
:10010B00FCFFFEFD22E933E8330470F80202AB1268
:10011B00027658046009E4CC248150062850090269
:10012B0002B52840030202B2C0E0EB4A7044B9802A
:10013B0006D0E0FB0202A1EF4E701CBD8008EBFF66
:10014B00EAFEE9FD80EBE98DF0A4FEE5F00201E4A7
:10015B00E9CDF9EAFEEBFFEF89F0A4FCE5F0CE89DF
:10016B00F0A42EFFE435F0CD89F0A42DFEE435F09C
:10017B008067EF4E7005BD80D780C3EF8BF0A4ACCA
:10018B00F0EE8BF0A42CFCE435F0F8EF8AF0A42C05
:10019B00E5F038FCE433CB8DF0A42CFCE5F03BF818
:1001AB00EE8AF0A42CFCE5F038F8E433CF89F0A408
:1001BB002CFCE5F038CF3400CE89F0A42FFFE5F00E
:1001CB003EFEE433C98DF0A42EFEE5F039CD8AF066
:1001DB00A42FFFE5F03EFEE43DFD33D0E0FB5007DE
:1001EB000BBB000F0202B5EC2CFCEF33FFEE33FE22
:0601FB00ED33FD02028D50
:1002010075F020800E75F010800575F0087D007E78
:10021100007F003392D530D50312047BEC334010BC
:10022100EF33FFEE33FEED33FDEC33FCD5F0ED2281
:0E023100E5F0247EA2D513CC92E7CDCEFF22BD
:10023F00EDD2E7CD33EC3392D524814006E4FFFEB7
:10024F00FDFC22FCE4CFCECDCC24E0501174FF8016
:10025F00EDC3CC13CCCD13CDCE13CECF13CF0470B3
:07026F00F030D5DE02047B34
:10091B008F388E378D368C35AB3CAA3BA93AA8392C
:10092B001202C31207928F388E378D368C35E5390C
:10093B0030E747ECC0E0EDC0E0EEC0E0EFC0E0E434
:10094B00FFFEFDFCAB38AA37A936A8351203607B36
:10095B00DB600250087A0F7949784080067A0F796C
:10096B004978C0D0E0FFD0E0FED0E0FDD0E0FC1233
:10097B00000A8F388E378D368C35AF38AE37AD36A3
:03098B00AC352266
:10027600E9D2E7C933E833F892D5EDD2E7CD33ECCE
:0702860033FC5002B2D52247
:10028D00EC30E7100FBF000C0EBE00080DBD0004D2
:10029D000BEB6014A2D5EB13FCED92E7FD2274FF7E
:1002AD00FCFDFEFF22E480F8A2D574FF13FC7D80D7
:0302BD00E480EFEB
:1002C0000202B5EC5D046005E8590470030202AB5C
:1002D000120276580460F6EC4860F2EC7004FDFE01
:1002E000FF22C860DB2481C85009C3986002500611
:1002F0000202B29850CAF582E9294B4A7005AB82D6
:100300000202A175F0007C1A7880C3EF9BEE9AED93
:1003100099400DC3EF9BFFEE9AFEED99FDE842F088
:10032000DC23ACF0D0E0FFD0E0FED0E0FDAB8220DB
:10033000E7101BEB60BAEC2CFCEF33FFEE33FEED65
:1003400033FD02028DE803F830E705C0F075F000D8
:10035000EF2FFFEE33FEED33FD40B830E7C280AA49
:1003600074F8CC6480CCC86480C8F58204604FC344
:10037000EB9FF5F0EA9E42F0E99D42F0E89C45F0E3
:10038000603C501DE5825FFFE582D313CB5BCBF46D
:100390002B5582FB50280ABA002409B90020088096
:1003A0001DE5825BFBE582D313CF5FCFF4C3132F30
:1003B0005582FF50090EBE00050DBD00010CC3EBB8
:1003C0009FF5F0EA9E42F0E99D42F0E89C45F0601E
:0903D00007CC4820E701B3EC2240
:10077200BE1249253E4CCCCDBEAAAAAB3F8000009A
:100782003E7ADBB03EED63383F24BC7D3F490FDB50
:10079200ED33ECC2E7CC339200B4FF13ED547F602B
:1007A200030202AB7FDB7E0F7DC97C3F02088DC254
:1007B20001C3947F401E7007EDD2E794904015EF7D
:1007C200FBEEFAEDF9ECF87F007E007D807C3F12B3
:1007D20002C3D201ED33EC33248430E705E4C0E0F8
:1007E200806D04FAEDD2E754F0C333DAFD540734D6
:1007F200002323C0E0CCC0E0F8EDC0E0F9EEC0E099
:10080200FAEFC0E0FBE412020BEC24FEFC8C3D8DFF
:100812003E8E3F8F401200FB7B007A007980783F4A
:1008220012000AECC53DB2E7FCEDC53EFDEEC53F48
:10083200FEEFC540FFD0E0FBD0E0FAD0E0F9D0E017
:10084200F812000AA83DA93EAA3FAB401202C38C8F
:100852003D8D3E8E3F8F4090077274031203D9A8DC
:100862003DA93EAA3FAB401200FBD0E0600F247EC0
:10087200F582E43407F58312049912000A30010B61
:100882007BDB7A0F79C978BF12000AED33EC336053
:0808920006ECA20092E7FC2233
:1003D900C0E0EFFBEEFAEDF9ECF81200FBD0E0F526
:1003E900F0EFFBEEFAEDF9ECF8120489A3A3A3A34D
:1003F900E8C0E0E9C0E0EAC0E0EBC0E0C0F012000C
:10040900FB120499A3A3A3A312000AD0F0D0E0FB26
:0D041900D0E0FAD0E0F9D0E0F8D5F0D42220
:10042600BC000BBE0029EF8DF084FFADF022E4CCBA
:10043600F875F008EF2FFFEE33FEEC33FCEE9DEC83
:10044600984005FCEE9DFE0FD5F0E9E4CEFD22EDC9
:10045600F8F5F0EE8420D21CFEADF075F008EF2F13
:10046600FFED33FD4007985006D5F0F222C398FD04
:050476000FD5F0EA22A1
:0E047B00C3E49FFFE49EFEE49DFDE49CFC2292
:10048900E493FC740193FD740293FE740393FF22B9
:10049900E493F8740193F9740293FA740393FB22B9
:00000001FF
