:030000000206BD38
:0C06BD00787FE4F6D8FD75812D0207045B
:10095E0001250001230001220001210001240008CD
:09096E002600000000000000005A
:10074900AB07AA067C277D10120426EF2430F52476
:100759007C277D10AF03AE02120426AA04AB057CE8
:10076900037DE8AF03AE02120426EF2430F5217CA5
:10077900037DE8AF03AE02120426AA04AB057C0090
:100789007D64AF03AE02120426EF2430F5227C000B
:100799007D64AF03AE02120426AA04AB057C007D7A
:1007A9000AAF03AE02120426EF2430F5237C007D44
:0E07B9000AAF03AE02120426ED2430F525220D
:1005D100E4F508F509F50AF50BF50CF50DF511F53E
:1005E10010F50FF50E7FC8FE120909120943120911
:1005F100277F2C7E0112090912083AE527F508E543
:1006010026F509E529F50AE528F50BE52BF50CE5B5
:100611002AF50DAC0AAD0BEC120206C004C005C0F0
:1006210006C007AC08AD09EC1202068F198E188DB1
:10063100178C16D007D006D005D0041207C77BE06F
:100641007A2E796578421200FBE4FBFA793478431B
:1006510012000A8F118E108D0F8C0EE4FBFA792097
:1006610078411200FB8F118E108D0F8C0E12023FFC
:100671001207497B41E4FD7F021208EA7B3AE4FD5F
:100681007F031208EAAB21E4FD7F041208EAAB22E2
:10069100E4FD7F051208EAAB23E4FD7F061208EAB8
:1006A1007B2EE4FD7F071208EAAB25E4FD7F0812EB
:0C06B10008EA7F647E001209090205F9C6
:1008C900000000000000000000000000000000001F
:1008D900000000000000000000000000000000000F
:0108E90022EC
:10090900D3EF9400EE940040147D797C00ED1D70C6
:0D091900011CED4C70F7EF1F70E61E80E32F
:0109260022AE
:1009A60075A0FFC287D28600D2850000E5A020E7A9
:0409B600FBC28522D9
:10099100ED60031209A6C287C286008FA000D2852E
:0509A1000000C28522E8
:1009BA001209A6D287C286008FA000D2850000C283
:0209CA00852284
:100943007D017F381209917F081209917F011209F5
:0B095300917F061209917F0C020991B0
:1008EA00AE07AC0353050153060FED600343064000
:0F08FA00430680AF06E4FD120991AF040209BA6C
:0F09CC00D291D2901208C9C2911208C9C29022CA
:0C09F600C291D2901208C9D2910208C927
:0E09DB00A2009291D2901208C9C2900208C9DF
:0D09E900D2901208C9A291C2901208C92232
:0208A6008F14AD
:1008A800E4F515E51425E0F5149291D2901208C9E3
:1008B800C2901208C90515E515C3940840E5020958
:0108C800E946
:10087D00E4F514D291F513E51425E0F514D2901298
:10088D0008C9A291E4334214C2901208C90513E5B8
:08089D0013C3940840E1AF14FD
:0108A5002230
:100978008F128D131209CC7F1A1208A6AF12120813
:09098800A6AF131208A60209F63D
:10083A001209CC7F1A1208A6E4FF1208A61209CCE4
:10084A007F1B1208A6E4F51212087D74262512F8F9
:10085A00A607E512B40504D2008002C2001209DB21
:10086A000512E512C3940640DF1209F67F057E00E1
:03087A0002090967
:100927007D0D7F091209787D017F0B1209787D40C3
:0C0937007F201209787D017F21020978E1
:100003000202ABE86480F8E933E83360110460F07E
:10001300ED33EC337009E8FCE9FDEAFEEBFF220463
:1000230060DED3EB9FEA9EE99DE8C2E78CF0C2F75E
:1000330095F0400CE8CCF8E9CDF9EACEFAEBCFFB2A
:1000430012027685D0F05804700320D5B3E804700B
:10005300075002B2D50202B592D5EC0460F7E4CCA6
:10006300C0E0C398F8603B94186008400DD0E0FBF3
:1000730002028DE4FBFAC9FC8028E830E406E4C9F7
:10008300FBE4CAFCE830E305E4C9CACBFCE8540747
:100093006010F8C3E913F9EA13FAEB13FBEC13FC52
:1000A300D8F130F52FC3E49CFCEF9BFFEE9AFEEDF5
:1000B30099FDD0E0FBEF4E4D4C701222DB030202A0
:1000C300B2EC2CFCEF33FFEE33FEED33FDED30E706
:1000D300EB02028DEF2BFFEE3AFEED39FDD0E0FB94
:1000E30050130BBB00030202B5ED13FDEE13FEEF3D
:0800F30013FFEC13FC02028D67
:1000FB00EC4D6011E8497017ED33EC3304600DE4FF
:10010B00FCFFFEFD22E933E8330470F80202AB1268
:10011B00027658046009E4CC248150062850090269
:10012B0002B52840030202B2C0E0EB4A7044B9802A
:10013B0006D0E0FB0202A1EF4E701CBD8008EBFF66
:10014B00EAFEE9FD80EBE98DF0A4FEE5F00201E4A7
:10015B00E9CDF9EAFEEBFFEF89F0A4FCE5F0CE89DF
:10016B00F0A42EFFE435F0CD89F0A42DFEE435F09C
:10017B008067EF4E7005BD80D780C3EF8BF0A4ACCA
:10018B00F0EE8BF0A42CFCE435F0F8EF8AF0A42C05
:10019B00E5F038FCE433CB8DF0A42CFCE5F03BF818
:1001AB00EE8AF0A42CFCE5F038F8E433CF89F0A408
:1001BB002CFCE5F038CF3400CE89F0A42FFFE5F00E
:1001CB003EFEE433C98DF0A42EFEE5F039CD8AF066
:1001DB00A42FFFE5F03EFEE43DFD33D0E0FB5007DE
:1001EB000BBB000F0202B5EC2CFCEF33FFEE33FE22
:0601FB00ED33FD02028D50
:1002010075F020800E75F010800575F0087D007E78
:10021100007F003392D530D50312047BEC334010BC
:10022100EF33FFEE33FEED33FDEC33FCD5F0ED2281
:0E023100E5F0247EA2D513CC92E7CDCEFF22BD
:10023F00EDD2E7CD33EC3392D524814006E4FFFEB7
:10024F00FDFC22FCE4CFCECDCC24E0501174FF8016
:10025F00EDC3CC13CCCD13CDCE13CECF13CF0470B3
:07026F00F030D5DE02047B34
:1007C7008F158E148D138C12AB19AA18A917A8169A
:1007D7001202C31204C98F158E148D138C12E516DD
:1007E70030E747ECC0E0EDC0E0EEC0E0EFC0E0E48A
:1007F700FFFEFDFCAB15AA14A913A8121203607B18
:10080700DB600250087A0F7949784080067A0F79C1
:100817004978C0D0E0FFD0E0FED0E0FDD0E0FC1288
:10082700000A8F158E148D138C12AF15AE14AD13ED
:03083700AC1222DE
:10027600E9D2E7C933E833F892D5EDD2E7CD33ECCE
:0702860033FC5002B2D52247
:10028D00EC30E7100FBF000C0EBE00080DBD0004D2
:10029D000BEB6014A2D5EB13FCED92E7FD2274FF7E
:1002AD00FCFDFEFF22E480F8A2D574FF13FC7D80D7
:0302BD00E480EFEB
:1002C0000202B5EC5D046005E8590470030202AB5C
:1002D000120276580460F6EC4860F2EC7004FDFE01
:1002E000FF22C860DB2481C85009C3986002500611
:1002F0000202B29850CAF582E9294B4A7005AB82D6
:100300000202A175F0007C1A7880C3EF9BEE9AED93
:1003100099400DC3EF9BFFEE9AFEED99FDE842F088
:10032000DC23ACF0D0E0FFD0E0FED0E0FDAB8220DB
:10033000E7101BEB60BAEC2CFCEF33FFEE33FEED65
:1003400033FD02028DE803F830E705C0F075F000D8
:10035000EF2FFFEE33FEED33FD40B830E7C280AA49
:1003600074F8CC6480CCC86480C8F58204604FC344
:10037000EB9FF5F0EA9E42F0E99D42F0E89C45F0E3
:10038000603C501DE5825FFFE582D313CB5BCBF46D
:100390002B5582FB50280ABA002409B90020088096
:1003A0001DE5825BFBE582D313CF5FCFF4C3132F30
:1003B0005582FF50090EBE00050DBD00010CC3EBB8
:1003C0009FF5F0EA9E42F0E99D42F0E89C45F0601E
:0903D00007CC4820E701B3EC2240
:1004A900BE1249253E4CCCCDBEAAAAAB3F80000066
:1004B9003E7ADBB03EED63383F24BC7D3F490FDB1C
:1004C900ED33ECC2E7CC339200B4FF13ED547F60F7
:1004D900030202AB7FDB7E0F7DC97C3F0205C4C2EC
:1004E90001C3947F401E7007EDD2E794904015EF49
:1004F900FBEEFAEDF9ECF87F007E007D807C3F127F
:1005090002C3D201ED33EC33248430E705E4C0E0C3
:10051900806D04FAEDD2E754F0C333DAFD540734A1
:10052900002323C0E0CCC0E0F8EDC0E0F9EEC0E064
:10053900FAEFC0E0FBE412020BEC24FEFC8C1A8DEE
:100549001B8E1C8F1D1200FB7B007A007980783F7F
:1005590012000AECC51AB2E7FCEDC51BFDEEC51C7D
:10056900FEEFC51DFFD0E0FBD0E0FAD0E0F9D0E006
:10057900F812000AA81AA91BAA1CAB1D1202C38CE7
:100589001A8D1B8E1C8F1D9004A974031203D9A800
:100599001AA91BAA1CAB1D1200FBD0E0600F24B5E1
:1005A900F582E43404F58312049912000A30010B30
:1005B9007BDB7A0F79C978BF12000AED33EC33601F
:0805C90006ECA20092E7FC22FF
:1003D900C0E0EFFBEEFAEDF9ECF81200FBD0E0F526
:1003E900F0EFFBEEFAEDF9ECF8120489A3A3A3A34D
:1003F900E8C0E0E9C0E0EAC0E0EBC0E0C0F012000C
:10040900FB120499A3A3A3A312000AD0F0D0E0FB26
:0D041900D0E0FAD0E0F9D0E0F8D5F0D42220
:1006C9000205D1E493A3F8E493A34003F68001F271
:1006D90008DFF48029E493A3F85407240CC8C33332
:1006E900C4540F4420C8834004F456800146F6DF01
:1006F900E4800B010204081020408090095EE47E2A
:10070900019360BCA3FF543F30E509541FFEE493F5
:10071900A360010ECF54C025E060A840B8E493A3BC
:10072900FAE493A3F8E493A3C8C582C8CAC583CAE7
:10073900F0A3C8C582C8CAC583CADFE9DEE780BE9F
:01097700007F
:10042600BC000BBE0029EF8DF084FFADF022E4CCBA
:10043600F875F008EF2FFFEE33FEEC33FCEE9DEC83
:10044600984005FCEE9DFE0FD5F0E9E4CEFD22EDC9
:10045600F8F5F0EE8420D21CFEADF075F008EF2F13
:10046600FFED33FD4007985006D5F0F222C398FD04
:050476000FD5F0EA22A1
:0E047B00C3E49FFFE49EFEE49DFDE49CFC2292
:10048900E493FC740193FD740293FE740393FF22B9
:10049900E493F8740193F9740293FA740393FB22B9
:00000001FF
