:03000000020908EA
:0C090800787FE4F6D8FD75812D0205D142
:1006A600AB07AA067C277D10120426EF2430F5241A
:1006B6007C277D10AF03AE02120426AA04AB057C8C
:1006C600037DE8AF03AE02120426EF2430F5217C49
:1006D600037DE8AF03AE02120426AA04AB057C0034
:1006E6007D64AF03AE02120426EF2430F5227C00AF
:1006F6007D64AF03AE02120426AA04AB057C007D1E
:100706000AAF03AE02120426EF2430F5237C007DE7
:0E0716000AAF03AE02120426ED2430F52522B0
:10080D00D3EF9400EE940040147D797C00ED1D70C3
:0D081D00011CED4C70F7EF1F70E61E80E32C
:01082A0022AB
:1008A90075A0FFC287D28600D2850000E5A020E7A7
:0408B900FBC28522D7
:10089400ED60031208A9C287C286008FA000D2852A
:0508A4000000C28522E6
:1008BD001208A9D287C286008FA000D2850000C27F
:0208CD00852282
:100849007D017F381208947F081208947F011208ED
:0B085900947F061208947F0C020894A4
:1007EE00AE07AC0353050153060FED6003430640FD
:0F07FE00430680AF06E4FD120894AF040208BD65
:1007CD00000000000000000000000000000000001C
:1007DD00000000000000000000000000000000000C
:0107ED0022E9
:0E08CF007F307E02EF1FAC0670011E4C70F6EB
:0108DD0022F8
:0F08DE00D291D2901207CDC2911207CDC29022B3
:0C091400C291D2901207CDD2910207CD03
:0E08ED00A2009291D2901207CDC2900207CDC8
:0D08FB00D2901207CDA291C2901207CD221B
:10086400E4FEEF25E0FF9291D2901207CDC29012E0
:0908740007CD0EBE08EC0208FBE2
:10082B00E4FFD291FEEF25E0FFD2901207CDA2910B
:0D083B00E4334207C2901207CD0EBE08E85C
:01084800228D
:10087D00AC071208DE7F3C120864AF04120864AFA7
:07088D0005120864020914C2
:100797001208DE7F3C1208647F031208641208DE29
:1007A7007F3D120864E4FD12082B74262DF8A60776
:1007B700BD0504D2008002C2001208ED0DBD06E798
:0607C7001209140208CF24
:07092000E4FD7F0202087DE7
:1005D1007FF47E0112080D120849120920120797B3
:1005E100E526F508E527F509E528F50AE529F50BDE
:1005F100E52AFEE52BFFFDAC06EC120206C004C0A5
:1006010005C006C007AC08AD09EC1202068F178EB3
:10061100168D158C14D007D006D005D004120724EE
:100621007BE07A2E796578421200FBE4FBFA79349B
:10063100784312000A8F0F8E0E8D0D8C0CE4FBFA9D
:10064100792078411200FB8F0F8E0E8D0D8C0C12CC
:10065100023F1206A67B41E4FD7F021207EE7B3AC0
:10066100E4FD7F031207EEAB21E4FD7F041207EEE8
:10067100AB22E4FD7F051207EEAB23E4FD7F0612FA
:1006810007EE7B2EE4FD7F071207EEAB25E4FD7F2D
:10069100081207EEE4FFFE0FBF00010EBE27F8BFF0
:0506A10010F50205DE6A
:100003000202ABE86480F8E933E83360110460F07E
:10001300ED33EC337009E8FCE9FDEAFEEBFF220463
:1000230060DED3EB9FEA9EE99DE8C2E78CF0C2F75E
:1000330095F0400CE8CCF8E9CDF9EACEFAEBCFFB2A
:1000430012027685D0F05804700320D5B3E804700B
:10005300075002B2D50202B592D5EC0460F7E4CCA6
:10006300C0E0C398F8603B94186008400DD0E0FBF3
:1000730002028DE4FBFAC9FC8028E830E406E4C9F7
:10008300FBE4CAFCE830E305E4C9CACBFCE8540747
:100093006010F8C3E913F9EA13FAEB13FBEC13FC52
:1000A300D8F130F52FC3E49CFCEF9BFFEE9AFEEDF5
:1000B30099FDD0E0FBEF4E4D4C701222DB030202A0
:1000C300B2EC2CFCEF33FFEE33FEED33FDED30E706
:1000D300EB02028DEF2BFFEE3AFEED39FDD0E0FB94
:1000E30050130BBB00030202B5ED13FDEE13FEEF3D
:0800F30013FFEC13FC02028D67
:1000FB00EC4D6011E8497017ED33EC3304600DE4FF
:10010B00FCFFFEFD22E933E8330470F80202AB1268
:10011B00027658046009E4CC248150062850090269
:10012B0002B52840030202B2C0E0EB4A7044B9802A
:10013B0006D0E0FB0202A1EF4E701CBD8008EBFF66
:10014B00EAFEE9FD80EBE98DF0A4FEE5F00201E4A7
:10015B00E9CDF9EAFEEBFFEF89F0A4FCE5F0CE89DF
:10016B00F0A42EFFE435F0CD89F0A42DFEE435F09C
:10017B008067EF4E7005BD80D780C3EF8BF0A4ACCA
:10018B00F0EE8BF0A42CFCE435F0F8EF8AF0A42C05
:10019B00E5F038FCE433CB8DF0A42CFCE5F03BF818
:1001AB00EE8AF0A42CFCE5F038F8E433CF89F0A408
:1001BB002CFCE5F038CF3400CE89F0A42FFFE5F00E
:1001CB003EFEE433C98DF0A42EFEE5F039CD8AF066
:1001DB00A42FFFE5F03EFEE43DFD33D0E0FB5007DE
:1001EB000BBB000F0202B5EC2CFCEF33FFEE33FE22
:0601FB00ED33FD02028D50
:1002010075F020800E75F010800575F0087D007E78
:10021100007F003392D530D50312047BEC334010BC
:10022100EF33FFEE33FEED33FDEC33FCD5F0ED2281
:0E023100E5F0247EA2D513CC92E7CDCEFF22BD
:10023F00EDD2E7CD33EC3392D524814006E4FFFEB7
:10024F00FDFC22FCE4CFCECDCC24E0501174FF8016
:10025F00EDC3CC13CCCD13CDCE13CECF13CF0470B3
:07026F00F030D5DE02047B34
:100724008F138E128D118C10AB17AA16A915A8144D
:100734001202C31204C98F138E128D118C10E5148A
:1007440030E747ECC0E0EDC0E0EEC0E0EFC0E0E42D
:10075400FFFEFDFCAB13AA12A911A8101203607BC3
:10076400DB600250087A0F7949784080067A0F7965
:100774004978C0D0E0FFD0E0FED0E0FDD0E0FC122C
:10078400000A8F138E128D118C10AF13AE12AD119F
:03079400AC102284
:10027600E9D2E7C933E833F892D5EDD2E7CD33ECCE
:0702860033FC5002B2D52247
:10028D00EC30E7100FBF000C0EBE00080DBD0004D2
:10029D000BEB6014A2D5EB13FCED92E7FD2274FF7E
:1002AD00FCFDFEFF22E480F8A2D574FF13FC7D80D7
:0302BD00E480EFEB
:1002C0000202B5EC5D046005E8590470030202AB5C
:1002D000120276580460F6EC4860F2EC7004FDFE01
:1002E000FF22C860DB2481C85009C3986002500611
:1002F0000202B29850CAF582E9294B4A7005AB82D6
:100300000202A175F0007C1A7880C3EF9BEE9AED93
:1003100099400DC3EF9BFFEE9AFEED99FDE842F088
:10032000DC23ACF0D0E0FFD0E0FED0E0FDAB8220DB
:10033000E7101BEB60BAEC2CFCEF33FFEE33FEED65
:1003400033FD02028DE803F830E705C0F075F000D8
:10035000EF2FFFEE33FEED33FD40B830E7C280AA49
:1003600074F8CC6480CCC86480C8F58204604FC344
:10037000EB9FF5F0EA9E42F0E99D42F0E89C45F0E3
:10038000603C501DE5825FFFE582D313CB5BCBF46D
:100390002B5582FB50280ABA002409B90020088096
:1003A0001DE5825BFBE582D313CF5FCFF4C3132F30
:1003B0005582FF50090EBE00050DBD00010CC3EBB8
:1003C0009FF5F0EA9E42F0E99D42F0E89C45F0601E
:0903D00007CC4820E701B3EC2240
:1004A900BE1249253E4CCCCDBEAAAAAB3F80000066
:1004B9003E7ADBB03EED63383F24BC7D3F490FDB1C
:1004C900ED33ECC2E7CC339200B4FF13ED547F60F7
:1004D900030202AB7FDB7E0F7DC97C3F0205C4C2EC
:1004E90001C3947F401E7007EDD2E794904015EF49
:1004F900FBEEFAEDF9ECF87F007E007D807C3F127F
:1005090002C3D201ED33EC33248430E705E4C0E0C3
:10051900806D04FAEDD2E754F0C333DAFD540734A1
:10052900002323C0E0CCC0E0F8EDC0E0F9EEC0E064
:10053900FAEFC0E0FBE412020BEC24FEFC8C188DF0
:10054900198E1A8F1B1200FB7B007A007980783F85
:1005590012000AECC518B2E7FCEDC519FDEEC51A83
:10056900FEEFC51BFFD0E0FBD0E0FAD0E0F9D0E008
:10057900F812000AA818A919AA1AAB1B1202C38CEF
:10058900188D198E1A8F1B9004A974031203D9A808
:1005990018A919AA1AAB1B1200FBD0E0600F24B5E9
:1005A900F582E43404F58312049912000A30010B30
:1005B9007BDB7A0F79C978BF12000AED33EC33601F
:0805C90006ECA20092E7FC22FF
:1003D900C0E0EFFBEEFAEDF9ECF81200FBD0E0F526
:1003E900F0EFFBEEFAEDF9ECF8120489A3A3A3A34D
:1003F900E8C0E0E9C0E0EAC0E0EBC0E0C0F012000C
:10040900FB120499A3A3A3A312000AD0F0D0E0FB26
:0D041900D0E0FAD0E0F9D0E0F8D5F0D42220
:10042600BC000BBE0029EF8DF084FFADF022E4CCBA
:10043600F875F008EF2FFFEE33FEEC33FCEE9DEC83
:10044600984005FCEE9DFE0FD5F0E9E4CEFD22EDC9
:10045600F8F5F0EE8420D21CFEADF075F008EF2F13
:10046600FFED33FD4007985006D5F0F222C398FD04
:050476000FD5F0EA22A1
:0E047B00C3E49FFFE49EFEE49DFDE49CFC2292
:10048900E493FC740193FD740293FE740393FF22B9
:10049900E493F8740193F9740293FA740393FB22B9
:00000001FF
